{
  "_format": "hh-sol-artifact-1",
  "contractName": "WavePortal",
  "sourceName": "contracts/WavePortal.sol",
  "abi": [
    {
      "inputs": [],
      "stateMutability": "payable",
      "type": "constructor"
    },
    {
      "anonymous": false,
      "inputs": [
        {
          "indexed": true,
          "internalType": "address",
          "name": "from",
          "type": "address"
        },
        {
          "indexed": false,
          "internalType": "uint256",
          "name": "timestamp",
          "type": "uint256"
        },
        {
          "indexed": false,
          "internalType": "string",
          "name": "message",
          "type": "string"
        }
      ],
      "name": "gotWave",
      "type": "event"
    },
    {
      "inputs": [],
      "name": "block_user",
      "outputs": [],
      "stateMutability": "nonpayable",
      "type": "function"
    },
    {
      "inputs": [],
      "name": "check_blocked",
      "outputs": [
        {
          "internalType": "bool",
          "name": "",
          "type": "bool"
        }
      ],
      "stateMutability": "view",
      "type": "function"
    },
    {
      "inputs": [],
      "name": "getAllWaves",
      "outputs": [
        {
          "components": [
            {
              "internalType": "address",
              "name": "waveFrom",
              "type": "address"
            },
            {
              "internalType": "string",
              "name": "message",
              "type": "string"
            },
            {
              "internalType": "uint256",
              "name": "timestamp",
              "type": "uint256"
            }
          ],
          "internalType": "struct WavePortal.Wave[]",
          "name": "",
          "type": "tuple[]"
        }
      ],
      "stateMutability": "view",
      "type": "function"
    },
    {
      "inputs": [],
      "name": "getTotalWaves",
      "outputs": [
        {
          "internalType": "uint256",
          "name": "",
          "type": "uint256"
        }
      ],
      "stateMutability": "view",
      "type": "function"
    },
    {
      "inputs": [],
      "name": "unblock_user",
      "outputs": [],
      "stateMutability": "nonpayable",
      "type": "function"
    },
    {
      "inputs": [
        {
          "internalType": "string",
          "name": "_message",
          "type": "string"
        }
      ],
      "name": "wave",
      "outputs": [],
      "stateMutability": "nonpayable",
      "type": "function"
    }
  ],
  "bytecode": "0x60806040526200004f6040518060400160405280601281526020017f48692c2069742773206d65204d616865736800000000000000000000000000008152506200005560201b6200078d1760201c565b620001e9565b620000f5816040516024016200006c919062000162565b6040516020818303038152906040527f41304fac000000000000000000000000000000000000000000000000000000007bffffffffffffffffffffffffffffffffffffffffffffffffffffffff19166020820180517bffffffffffffffffffffffffffffffffffffffffffffffffffffffff8381831617835250505050620000f860201b60201c565b50565b60008151905060006a636f6e736f6c652e6c6f679050602083016000808483855afa5050505050565b60006200012e8262000186565b6200013a818562000191565b93506200014c818560208601620001a2565b6200015781620001d8565b840191505092915050565b600060208201905081810360008301526200017e818462000121565b905092915050565b600081519050919050565b600082825260208201905092915050565b60005b83811015620001c2578082015181840152602081019050620001a5565b83811115620001d2576000848401525b50505050565b6000601f19601f8301169050919050565b6112b780620001f96000396000f3fe608060405234801561001057600080fd5b50600436106100625760003560e01c8063449d46c01461006757806363b1e227146100835780639a2cdc08146100a1578063bd43a908146100bf578063c0f7a283146100dd578063dc24c5c5146100e7575b600080fd5b610081600480360381019061007c9190610b31565b6100f1565b005b61008b6103e3565b6040516100989190610da8565b60405180910390f35b6100a96104c1565b6040516100b69190610ec3565b60405180910390f35b6100c761050c565b6040516100d49190610d86565b60405180910390f35b6100e561065d565b005b6100ef6106f5565b005b600115156000803373ffffffffffffffffffffffffffffffffffffffff1673ffffffffffffffffffffffffffffffffffffffff16815260200190815260200160002060009054906101000a900460ff161515141561016f5761016a6040518060600160405280602a8152602001611258602a913961078d565b6103e0565b60018060008282546101819190610fd5565b925050819055506101c76040518060400160405280601b81526020017f257320686173206265656e20776176656420617420796f75203b29000000000081525033610826565b600260405180606001604052803373ffffffffffffffffffffffffffffffffffffffff16815260200183815260200142815250908060018154018082558091505060019003906000526020600020906003020160009091909190915060008201518160000160006101000a81548173ffffffffffffffffffffffffffffffffffffffff021916908373ffffffffffffffffffffffffffffffffffffffff1602179055506020820151816001019080519060200190610286929190610a26565b506040820151816002015550503373ffffffffffffffffffffffffffffffffffffffff167f9d93ac20d8f5108027d72f034709845cc8b9bee1b917e2d5663f502fdcd829d642836040516102db929190610ede565b60405180910390a26000655af3107a4000905047811115610331576040517f08c379a000000000000000000000000000000000000000000000000000000000815260040161032890610e83565b60405180910390fd5b60003373ffffffffffffffffffffffffffffffffffffffff168260405161035790610d71565b60006040518083038185875af1925050503d8060008114610394576040519150601f19603f3d011682016040523d82523d6000602084013e610399565b606091505b50509050806103dd576040517f08c379a00000000000000000000000000000000000000000000000000000000081526004016103d490610ea3565b60405180910390fd5b50505b50565b60006104706040518060400160405280601881526020017f5573657220257320697320626c6f636b6564203f212025730000000000000000815250336000803373ffffffffffffffffffffffffffffffffffffffff1673ffffffffffffffffffffffffffffffffffffffff16815260200190815260200160002060009054906101000a900460ff166108c2565b6000803373ffffffffffffffffffffffffffffffffffffffff1673ffffffffffffffffffffffffffffffffffffffff16815260200190815260200160002060009054906101000a900460ff16905090565b60006105046040518060400160405280601e81526020017f5765206861766520746f74616c20256420776176657320212121212121210000815250600154610961565b600154905090565b60606002805480602002602001604051908101604052809291908181526020016000905b8282101561065457838290600052602060002090600302016040518060600160405290816000820160009054906101000a900473ffffffffffffffffffffffffffffffffffffffff1673ffffffffffffffffffffffffffffffffffffffff1673ffffffffffffffffffffffffffffffffffffffff1681526020016001820180546105b9906110b5565b80601f01602080910402602001604051908101604052809291908181526020018280546105e5906110b5565b80156106325780601f1061060757610100808354040283529160200191610632565b820191906000526020600020905b81548152906001019060200180831161061557829003601f168201915b5050505050815260200160028201548152505081526020019060010190610530565b50505050905090565b60016000803373ffffffffffffffffffffffffffffffffffffffff1673ffffffffffffffffffffffffffffffffffffffff16815260200190815260200160002060006101000a81548160ff0219169083151502179055506106f36040518060400160405280600f81526020017f426c6f636b65642075736572202573000000000000000000000000000000000081525033610826565b565b60008060003373ffffffffffffffffffffffffffffffffffffffff1673ffffffffffffffffffffffffffffffffffffffff16815260200190815260200160002060006101000a81548160ff02191690831515021790555061078b6040518060400160405280601181526020017f556e626c6f636b6564207573657220257300000000000000000000000000000081525033610826565b565b610823816040516024016107a19190610dc3565b6040516020818303038152906040527f41304fac000000000000000000000000000000000000000000000000000000007bffffffffffffffffffffffffffffffffffffffffffffffffffffffff19166020820180517bffffffffffffffffffffffffffffffffffffffffffffffffffffffff83818316178352505050506109fd565b50565b6108be828260405160240161083c929190610de5565b6040516020818303038152906040527f319af333000000000000000000000000000000000000000000000000000000007bffffffffffffffffffffffffffffffffffffffffffffffffffffffff19166020820180517bffffffffffffffffffffffffffffffffffffffffffffffffffffffff83818316178352505050506109fd565b5050565b61095c8383836040516024016108da93929190610e15565b6040516020818303038152906040527fc91d5ed4000000000000000000000000000000000000000000000000000000007bffffffffffffffffffffffffffffffffffffffffffffffffffffffff19166020820180517bffffffffffffffffffffffffffffffffffffffffffffffffffffffff83818316178352505050506109fd565b505050565b6109f98282604051602401610977929190610e53565b6040516020818303038152906040527f9710a9d0000000000000000000000000000000000000000000000000000000007bffffffffffffffffffffffffffffffffffffffffffffffffffffffff19166020820180517bffffffffffffffffffffffffffffffffffffffffffffffffffffffff83818316178352505050506109fd565b5050565b60008151905060006a636f6e736f6c652e6c6f679050602083016000808483855afa5050505050565b828054610a32906110b5565b90600052602060002090601f016020900481019282610a545760008555610a9b565b82601f10610a6d57805160ff1916838001178555610a9b565b82800160010185558215610a9b579182015b82811115610a9a578251825591602001919060010190610a7f565b5b509050610aa89190610aac565b5090565b5b80821115610ac5576000816000905550600101610aad565b5090565b6000610adc610ad784610f33565b610f0e565b905082815260208101848484011115610af457600080fd5b610aff848285611073565b509392505050565b600082601f830112610b1857600080fd5b8135610b28848260208601610ac9565b91505092915050565b600060208284031215610b4357600080fd5b600082013567ffffffffffffffff811115610b5d57600080fd5b610b6984828501610b07565b91505092915050565b6000610b7e8383610d03565b905092915050565b610b8f8161102b565b82525050565b610b9e8161102b565b82525050565b6000610baf82610f74565b610bb98185610f97565b935083602082028501610bcb85610f64565b8060005b85811015610c075784840389528151610be88582610b72565b9450610bf383610f8a565b925060208a01995050600181019050610bcf565b50829750879550505050505092915050565b610c228161103d565b82525050565b6000610c3382610f7f565b610c3d8185610fb3565b9350610c4d818560208601611082565b610c56816111a5565b840191505092915050565b6000610c6c82610f7f565b610c768185610fc4565b9350610c86818560208601611082565b610c8f816111a5565b840191505092915050565b6000610ca7603483610fc4565b9150610cb2826111b6565b604082019050919050565b6000610cca602783610fc4565b9150610cd582611205565b604082019050919050565b6000610ced600083610fa8565b9150610cf882611254565b600082019050919050565b6000606083016000830151610d1b6000860182610b86565b5060208301518482036020860152610d338282610c28565b9150506040830151610d486040860182610d53565b508091505092915050565b610d5c81611069565b82525050565b610d6b81611069565b82525050565b6000610d7c82610ce0565b9150819050919050565b60006020820190508181036000830152610da08184610ba4565b905092915050565b6000602082019050610dbd6000830184610c19565b92915050565b60006020820190508181036000830152610ddd8184610c61565b905092915050565b60006040820190508181036000830152610dff8185610c61565b9050610e0e6020830184610b95565b9392505050565b60006060820190508181036000830152610e2f8186610c61565b9050610e3e6020830185610b95565b610e4b6040830184610c19565b949350505050565b60006040820190508181036000830152610e6d8185610c61565b9050610e7c6020830184610d62565b9392505050565b60006020820190508181036000830152610e9c81610c9a565b9050919050565b60006020820190508181036000830152610ebc81610cbd565b9050919050565b6000602082019050610ed86000830184610d62565b92915050565b6000604082019050610ef36000830185610d62565b8181036020830152610f058184610c61565b90509392505050565b6000610f18610f29565b9050610f2482826110e7565b919050565b6000604051905090565b600067ffffffffffffffff821115610f4e57610f4d611176565b5b610f57826111a5565b9050602081019050919050565b6000819050602082019050919050565b600081519050919050565b600081519050919050565b6000602082019050919050565b600082825260208201905092915050565b600081905092915050565b600082825260208201905092915050565b600082825260208201905092915050565b6000610fe082611069565b9150610feb83611069565b9250827fffffffffffffffffffffffffffffffffffffffffffffffffffffffffffffffff038211156110205761101f611118565b5b828201905092915050565b600061103682611049565b9050919050565b60008115159050919050565b600073ffffffffffffffffffffffffffffffffffffffff82169050919050565b6000819050919050565b82818337600083830152505050565b60005b838110156110a0578082015181840152602081019050611085565b838111156110af576000848401525b50505050565b600060028204905060018216806110cd57607f821691505b602082108114156110e1576110e0611147565b5b50919050565b6110f0826111a5565b810181811067ffffffffffffffff8211171561110f5761110e611176565b5b80604052505050565b7f4e487b7100000000000000000000000000000000000000000000000000000000600052601160045260246000fd5b7f4e487b7100000000000000000000000000000000000000000000000000000000600052602260045260246000fd5b7f4e487b7100000000000000000000000000000000000000000000000000000000600052604160045260246000fd5b6000601f19601f8301169050919050565b7f547279696e6720746f207769746864726177206d6f7265206d6f6e657920746860008201527f616e2074686520636f6e7472616374206861732e000000000000000000000000602082015250565b7f4661696c656420746f207769746864726177206d6f6e65792066726f6d20636f60008201527f6e74726163742e00000000000000000000000000000000000000000000000000602082015250565b5056fe4168682e2e2e212074686973207573657220697320626c6f636b65642c20736f7272792062726f203a29a264697066735822122031c8ad5f09c2aa2739e1fcf6140b99ca72f0248331381f80cebe94b9e94f8ae364736f6c63430008040033",
  "linkReferences": {},
  "deployedLinkReferences": {}
}